{"abi":[{"type":"constructor","inputs":[{"name":"admin_","type":"address","internalType":"address"},{"name":"collateralManager_","type":"address","internalType":"address"},{"name":"oracle_","type":"address","internalType":"address"},{"name":"interestRateModel_","type":"address","internalType":"address"},{"name":"treasury_","type":"address","internalType":"address"}],"stateMutability":"nonpayable"},{"type":"function","name":"CLOSE_FACTOR_BPS","inputs":[],"outputs":[{"name":"","type":"uint256","internalType":"uint256"}],"stateMutability":"view"},{"type":"function","name":"DEFAULT_ADMIN_ROLE","inputs":[],"outputs":[{"name":"","type":"bytes32","internalType":"bytes32"}],"stateMutability":"view"},{"type":"function","name":"MAX_ASSETS_PER_USER","inputs":[],"outputs":[{"name":"","type":"uint256","internalType":"uint256"}],"stateMutability":"view"},{"type":"function","name":"POOL_ADMIN_ROLE","inputs":[],"outputs":[{"name":"","type":"bytes32","internalType":"bytes32"}],"stateMutability":"view"},{"type":"function","name":"borrow","inputs":[{"name":"asset","type":"address","internalType":"address"},{"name":"amount","type":"uint256","internalType":"uint256"}],"outputs":[],"stateMutability":"nonpayable"},{"type":"function","name":"collateralManager","inputs":[],"outputs":[{"name":"","type":"address","internalType":"contract ICollateralManager"}],"stateMutability":"view"},{"type":"function","name":"deposit","inputs":[{"name":"asset","type":"address","internalType":"address"},{"name":"amount","type":"uint256","internalType":"uint256"}],"outputs":[],"stateMutability":"nonpayable"},{"type":"function","name":"getAssetList","inputs":[],"outputs":[{"name":"","type":"address[]","internalType":"address[]"}],"stateMutability":"view"},{"type":"function","name":"getReserveData","inputs":[{"name":"asset","type":"address","internalType":"address"}],"outputs":[{"name":"","type":"tuple","internalType":"struct ILendingPool.ReserveData","components":[{"name":"liquidityIndex","type":"uint128","internalType":"uint128"},{"name":"borrowIndex","type":"uint128","internalType":"uint128"},{"name":"totalScaledDeposits","type":"uint256","internalType":"uint256"},{"name":"totalScaledBorrows","type":"uint256","internalType":"uint256"},{"name":"lastUpdateTimestamp","type":"uint40","internalType":"uint40"},{"name":"lTokenAddress","type":"address","internalType":"address"},{"name":"isActive","type":"bool","internalType":"bool"},{"name":"isBorrowEnabled","type":"bool","internalType":"bool"}]}],"stateMutability":"view"},{"type":"function","name":"getRoleAdmin","inputs":[{"name":"role","type":"bytes32","internalType":"bytes32"}],"outputs":[{"name":"","type":"bytes32","internalType":"bytes32"}],"stateMutability":"view"},{"type":"function","name":"getUserAccountData","inputs":[{"name":"user","type":"address","internalType":"address"}],"outputs":[{"name":"totalCollateralUsd","type":"uint256","internalType":"uint256"},{"name":"totalDebtUsd","type":"uint256","internalType":"uint256"},{"name":"healthFactor","type":"uint256","internalType":"uint256"},{"name":"availableBorrowUsd","type":"uint256","internalType":"uint256"}],"stateMutability":"view"},{"type":"function","name":"getUserDebt","inputs":[{"name":"user","type":"address","internalType":"address"},{"name":"asset","type":"address","internalType":"address"}],"outputs":[{"name":"","type":"uint256","internalType":"uint256"}],"stateMutability":"view"},{"type":"function","name":"getUserDeposit","inputs":[{"name":"user","type":"address","internalType":"address"},{"name":"asset","type":"address","internalType":"address"}],"outputs":[{"name":"","type":"uint256","internalType":"uint256"}],"stateMutability":"view"},{"type":"function","name":"getUserHealthFactor","inputs":[{"name":"user","type":"address","internalType":"address"}],"outputs":[{"name":"","type":"uint256","internalType":"uint256"}],"stateMutability":"view"},{"type":"function","name":"getUserScaledBorrow","inputs":[{"name":"user","type":"address","internalType":"address"},{"name":"asset","type":"address","internalType":"address"}],"outputs":[{"name":"","type":"uint256","internalType":"uint256"}],"stateMutability":"view"},{"type":"function","name":"getUserScaledDeposit","inputs":[{"name":"user","type":"address","internalType":"address"},{"name":"asset","type":"address","internalType":"address"}],"outputs":[{"name":"","type":"uint256","internalType":"uint256"}],"stateMutability":"view"},{"type":"function","name":"grantRole","inputs":[{"name":"role","type":"bytes32","internalType":"bytes32"},{"name":"account","type":"address","internalType":"address"}],"outputs":[],"stateMutability":"nonpayable"},{"type":"function","name":"hasRole","inputs":[{"name":"role","type":"bytes32","internalType":"bytes32"},{"name":"account","type":"address","internalType":"address"}],"outputs":[{"name":"","type":"bool","internalType":"bool"}],"stateMutability":"view"},{"type":"function","name":"initAsset","inputs":[{"name":"asset","type":"address","internalType":"address"}],"outputs":[],"stateMutability":"nonpayable"},{"type":"function","name":"interestRateModel","inputs":[],"outputs":[{"name":"","type":"address","internalType":"contract IInterestRateModel"}],"stateMutability":"view"},{"type":"function","name":"liquidate","inputs":[{"name":"borrower","type":"address","internalType":"address"},{"name":"debtAsset","type":"address","internalType":"address"},{"name":"collateralAsset","type":"address","internalType":"address"},{"name":"debtAmount","type":"uint256","internalType":"uint256"}],"outputs":[],"stateMutability":"nonpayable"},{"type":"function","name":"oracle","inputs":[],"outputs":[{"name":"","type":"address","internalType":"contract IPriceOracle"}],"stateMutability":"view"},{"type":"function","name":"renounceRole","inputs":[{"name":"role","type":"bytes32","internalType":"bytes32"},{"name":"callerConfirmation","type":"address","internalType":"address"}],"outputs":[],"stateMutability":"nonpayable"},{"type":"function","name":"repay","inputs":[{"name":"asset","type":"address","internalType":"address"},{"name":"amount","type":"uint256","internalType":"uint256"}],"outputs":[{"name":"repaid","type":"uint256","internalType":"uint256"}],"stateMutability":"nonpayable"},{"type":"function","name":"revokeRole","inputs":[{"name":"role","type":"bytes32","internalType":"bytes32"},{"name":"account","type":"address","internalType":"address"}],"outputs":[],"stateMutability":"nonpayable"},{"type":"function","name":"setTreasury","inputs":[{"name":"treasury_","type":"address","internalType":"address"}],"outputs":[],"stateMutability":"nonpayable"},{"type":"function","name":"supportsInterface","inputs":[{"name":"interfaceId","type":"bytes4","internalType":"bytes4"}],"outputs":[{"name":"","type":"bool","internalType":"bool"}],"stateMutability":"view"},{"type":"function","name":"treasury","inputs":[],"outputs":[{"name":"","type":"address","internalType":"address"}],"stateMutability":"view"},{"type":"function","name":"withdraw","inputs":[{"name":"asset","type":"address","internalType":"address"},{"name":"amount","type":"uint256","internalType":"uint256"}],"outputs":[{"name":"withdrawn","type":"uint256","internalType":"uint256"}],"stateMutability":"nonpayable"},{"type":"event","name":"AssetInitialised","inputs":[{"name":"asset","type":"address","indexed":true,"internalType":"address"},{"name":"lToken","type":"address","indexed":true,"internalType":"address"}],"anonymous":false},{"type":"event","name":"Borrow","inputs":[{"name":"asset","type":"address","indexed":true,"internalType":"address"},{"name":"user","type":"address","indexed":true,"internalType":"address"},{"name":"amount","type":"uint256","indexed":false,"internalType":"uint256"}],"anonymous":false},{"type":"event","name":"Deposit","inputs":[{"name":"asset","type":"address","indexed":true,"internalType":"address"},{"name":"user","type":"address","indexed":true,"internalType":"address"},{"name":"amount","type":"uint256","indexed":false,"internalType":"uint256"}],"anonymous":false},{"type":"event","name":"InterestAccrued","inputs":[{"name":"asset","type":"address","indexed":true,"internalType":"address"},{"name":"liquidityIndex","type":"uint256","indexed":false,"internalType":"uint256"},{"name":"borrowIndex","type":"uint256","indexed":false,"internalType":"uint256"}],"anonymous":false},{"type":"event","name":"Liquidation","inputs":[{"name":"borrower","type":"address","indexed":true,"internalType":"address"},{"name":"debtAsset","type":"address","indexed":true,"internalType":"address"},{"name":"collateralAsset","type":"address","indexed":true,"internalType":"address"},{"name":"debtRepaid","type":"uint256","indexed":false,"internalType":"uint256"},{"name":"collateralSeized","type":"uint256","indexed":false,"internalType":"uint256"},{"name":"liquidator","type":"address","indexed":false,"internalType":"address"}],"anonymous":false},{"type":"event","name":"Repay","inputs":[{"name":"asset","type":"address","indexed":true,"internalType":"address"},{"name":"user","type":"address","indexed":true,"internalType":"address"},{"name":"amount","type":"uint256","indexed":false,"internalType":"uint256"},{"name":"repayer","type":"address","indexed":true,"internalType":"address"}],"anonymous":false},{"type":"event","name":"ReservesCollected","inputs":[{"name":"asset","type":"address","indexed":true,"internalType":"address"},{"name":"amount","type":"uint256","indexed":false,"internalType":"uint256"}],"anonymous":false},{"type":"event","name":"RoleAdminChanged","inputs":[{"name":"role","type":"bytes32","indexed":true,"internalType":"bytes32"},{"name":"previousAdminRole","type":"bytes32","indexed":true,"internalType":"bytes32"},{"name":"newAdminRole","type":"bytes32","indexed":true,"internalType":"bytes32"}],"anonymous":false},{"type":"event","name":"RoleGranted","inputs":[{"name":"role","type":"bytes32","indexed":true,"internalType":"bytes32"},{"name":"account","type":"address","indexed":true,"internalType":"address"},{"name":"sender","type":"address","indexed":true,"internalType":"address"}],"anonymous":false},{"type":"event","name":"RoleRevoked","inputs":[{"name":"role","type":"bytes32","indexed":true,"internalType":"bytes32"},{"name":"account","type":"address","indexed":true,"internalType":"address"},{"name":"sender","type":"address","indexed":true,"internalType":"address"}],"anonymous":false},{"type":"event","name":"Withdraw","inputs":[{"name":"asset","type":"address","indexed":true,"internalType":"address"},{"name":"user","type":"address","indexed":true,"internalType":"address"},{"name":"amount","type":"uint256","indexed":false,"internalType":"uint256"}],"anonymous":false},{"type":"error","name":"AccessControlBadConfirmation","inputs":[]},{"type":"error","name":"AccessControlUnauthorizedAccount","inputs":[{"name":"account","type":"address","internalType":"address"},{"name":"neededRole","type":"bytes32","internalType":"bytes32"}]},{"type":"error","name":"AddressEmptyCode","inputs":[{"name":"target","type":"address","internalType":"address"}]},{"type":"error","name":"AddressInsufficientBalance","inputs":[{"name":"account","type":"address","internalType":"address"}]},{"type":"error","name":"FailedInnerCall","inputs":[]},{"type":"error","name":"LendingPool__AssetNotSupported","inputs":[{"name":"asset","type":"address","internalType":"address"}]},{"type":"error","name":"LendingPool__BorrowNotEnabled","inputs":[{"name":"asset","type":"address","internalType":"address"}]},{"type":"error","name":"LendingPool__HealthFactorOk","inputs":[{"name":"hf","type":"uint256","internalType":"uint256"}]},{"type":"error","name":"LendingPool__HealthFactorTooLow","inputs":[{"name":"hf","type":"uint256","internalType":"uint256"}]},{"type":"error","name":"LendingPool__InsufficientBalance","inputs":[]},{"type":"error","name":"LendingPool__InsufficientLiquidity","inputs":[]},{"type":"error","name":"LendingPool__SameAsset","inputs":[]},{"type":"error","name":"LendingPool__Unauthorized","inputs":[]},{"type":"error","name":"LendingPool__ZeroAddress","inputs":[]},{"type":"error","name":"LendingPool__ZeroAmount","inputs":[]},{"type":"error","name":"PercentageMath__MultiplicationOverflow","inputs":[]},{"type":"error","name":"ReentrancyGuardReentrantCall","inputs":[]},{"type":"error","name":"SafeERC20FailedOperation","inputs":[{"name":"token","type":"address","internalType":"address"}]},{"type":"error","name":"WadRayMath__DivisionByZero","inputs":[]},{"type":"error","name":"WadRayMath__MultiplicationOverflow","inputs":[]}],"bytecode":{"object":"0x60e03461018557601f61535c38819003918201601f191683019291906001600160401b0384118385101761018a578160a092849260409687528339810103126101855761004b816101a0565b90610058602082016101a0565b906100648482016101a0565b61007c6080610075606085016101a0565b93016101a0565b6001600055926001600160a01b039085821615610174578116918215610174578116928315610174578116938415610174571693841561016357806100c36100c9926101b4565b50610233565b5060805260a05260c052600280546001600160a01b0319169190911790555161506790816102d582396080518181816104cf0152818161092b015281816115e80152818161171c01528181611c5a015281816122c80152612d0d015260a0518181816104ab0152818161083b0152818161089f01528181610ed30152612ac9015260c0518181816103690152818161226601526123290152f35b855163bce473f560e01b8152600490fd5b865163bce473f560e01b8152600490fd5b600080fd5b634e487b7160e01b600052604160045260246000fd5b51906001600160a01b038216820361018557565b6001600160a01b031660008181527fa6eef7e35abe7026729641147f7915573c7e97b47efa546f5f6e3230263bcb49602052604081205490919060ff1661022f5781805260016020526040822081835260205260408220600160ff19825416179055339160008051602061533c8339815191528180a4600190565b5090565b6001600160a01b031660008181527faf5d0f47555657a6a3533658982fc6f84ddb9fd4ccfa01dfe1dfe7ccfeece74a60205260408120549091907f24e583e35a20f9ecfc1572e7cb66bcc18ad3cd1650ec40dbf6ad2290e553a9fa9060ff166102cf5780835260016020526040832082845260205260408320600160ff1982541617905560008051602061533c833981519152339380a4600190565b50509056fe608080604052600436101561001357600080fd5b600090813560e01c90816301ffc9a7146118ed575080630ea0619d146118a2578063148c658c1461184257806322867d781461161757806323be345c146115d2578063248a9ca3146115a65780632f2ff15d1461156857806335ea6a751461144357806336568abe146113fb5780633765c0b81461136457806347e7ef241461119857806348ddab641461117b5780634b8a352914610fa957806361d027b314610f805780636b6d2cb914610f3157806371cbfc9814610f025780637dc0d1d014610ebd578063866b60d314610ea157806391d1485414610e55578063a217fddf14610e39578063a2a00ed614610dd1578063aab3f8681461070c578063b8f6dba7146106d1578063bf709e94146106a4578063bf92857c14610438578063d547741f146103f6578063f0f4426014610398578063f3fdb15a146103535763f3fef3a31461016057600080fd5b3461035057604036600319011261035057610179611942565b906024359061018661218d565b61018f836121b0565b61019981856121f3565b6001600160801b0381541633835260209460068652604084209260018060a01b0391828116948560005288526040600020546101d58582612122565b97881561033e57888111156103385750875b6101f1868a6124f8565b9160016101fe84836119ab565b1061032b575b5050906003929133885260068a5260408820876000528a52604060002061022c8282546119ab565b9055610237336128ca565b610246600184019182546119ab565b905533875260068952604087208660005289526040600020541561031b575b50015460281c1690813b1561031757604051637a94c56560e11b81523360048201526024810186905260448101919091529083908290606490829084905af1801561030c576102f4575b50906001916102bf843383612900565b604051908482527f9b1bfa7fa9ee420a16e124f794c35ac9f90472acc99140eb2f6447c714cad8eb863393a355604051908152f35b6102fe8391611a01565b61030857386102af565b5080fd5b6040513d85823e3d90fd5b8380fd5b6103259033612941565b38610265565b9098509050600338610204565b976101e7565b604051637f16388760e01b8152600490fd5b80fd5b50346103505780600319360112610350576040517f00000000000000000000000000000000000000000000000000000000000000006001600160a01b03168152602090f35b5034610350576020366003190112610350576103b2611942565b6103ba612733565b6001600160a01b031680156103e4576bffffffffffffffffffffffff60a01b600254161760025580f35b60405163bce473f560e01b8152600490fd5b503461035057604036600319011261035057610434600435610416611958565b90808452600160205261042f60016040862001546127ad565b612853565b5080f35b5034610350576020908160031936011261035057610454611942565b9061045e82612a2e565b91949093839260018060a01b038092169182865260088452604086206040519081868254918281520191895286892090895b81811061068e57505050816104a6910382611a15565b8698827f00000000000000000000000000000000000000000000000000000000000000001693837f000000000000000000000000000000000000000000000000000000000000000016975b83518c101561065257846105058d8661210e565b5116878b526006895260408b20816000528952610570896105408d6001600160801b0360408060002054928781526003865220541690612122565b604051637f18c97b60e11b81526001600160a01b0385166004820152602481019190915291829081906044820190565b03818b5afa90811561064757908a918d91610616575b50604051637896034360e01b81526001600160a01b03909316600484015260248301528180604481015b03818d5afa90811561060b578b916105d8575b506105d090600192611ab5565b9b019a6104f1565b90508881813d8311610604575b6105ef8183611a15565b810103126105ff575160016105c3565b600080fd5b503d6105e5565b6040513d8d823e3d90fd5b82819392503d8311610640575b61062d8183611a15565b810103126105ff575189906105b0610586565b503d610623565b6040513d8e823e3d90fd5b608092918b8b818b948181116000146106865761066f92506119ab565b925b60405194855284015260408301526060820152f35b505092610671565b8254861684529288019260019283019201610490565b5034610350576020366003190112610350576106ce6106c1611942565b6106c9612733565b611c2d565b80f35b503461035057806003193601126103505760206040517f24e583e35a20f9ecfc1572e7cb66bcc18ad3cd1650ec40dbf6ad2290e553a9fa8152f35b503461035057608036600319011261035057610726611942565b61072e611958565b906044356001600160a01b03811690036105ff5760643561074d61218d565b808015610dbf576001600160a01b0384811660443590911614610dad576001600160a01b038316156103e45761078283612a2e565b915050670de0b6b3a7640000811015610d95575061079f846121b0565b6107aa6044356121b0565b906107b581876121f3565b6107c1826044356121f3565b60018060a01b038516875260076020526040872060018060a01b038716600052602052604060002054926108026107fd835460801c8096612122565b612644565b809111610d8d575b50604051637f18c97b60e11b81526001600160a01b03871660048201526024810185905292602084806044810103817f00000000000000000000000000000000000000000000000000000000000000006001600160a01b03165afa938415610d82578894610d4e575b506040516341976e0960e01b81526001600160a01b0360443581166004830152602090829060249082907f0000000000000000000000000000000000000000000000000000000000000000165afa908115610d43578991610d11575b5060405163313ce56760e01b81526020816004816044356001600160a01b03165afa908115610d06578a91610cd7575b50604051636ec3ab6760e01b81526001600160a01b036044358116600483015260c090829060249082907f0000000000000000000000000000000000000000000000000000000000000000165afa801561060b576040918c91610ca8575b50015195866127100161271011610c94579061099e8361099961098a8e99989796958b61271001906126a6565b61099385611b85565b90611b96565b611ba9565b9660018060a01b038a16875260066020526040872060018060a01b03604435166000526020526109de6040600020546001600160801b0388541690612122565b92838911610c25575b5050505060026109fa610a3992886124f8565b9260018060a01b038916865260076020526040862060018060a01b038b166000526020526040600020610a2e8582546119ab565b9055019182546119ab565b90556001600160a01b03858116835260076020908152604080852092891660009081529290915290205415610c16575b610a7d6001600160801b03825416846124f8565b60018060a01b038616835260066020526040832060018060a01b03604435166000526020526040600020610ab28282546119ab565b9055610ac3600183019182546119ab565b905560018060a01b038516825260066020526040822060018060a01b036044351660005260205260406000205415610c05575b6001600160801b0360018060a01b03600383015460281c16915416813b15610c0157604051637a94c56560e11b81526001600160a01b03871660048201526024810185905260448101919091529082908290606490829084905af18015610bf657610bde575b50610b7490508230336001600160a01b0388166126da565b610b8a81336044356001600160a01b0316612900565b60408051928352602083019190915233908201526001600160a01b0360443581169381169216907f1a98026bd2fd57ccb4933487f6d856fe1a60aa4605383cead00860edbe14b9f490606090a46001815580f35b610be790611a01565b610bf2578438610b5c565b8480fd5b6040513d84823e3d90fd5b8280fd5b610c1160443586612941565b610af6565b610c20868661257d565b610a69565b610c509192949950839850610c5695969750610c45906109999499611b96565b916127100193611b85565b90611ba9565b806127108102046127101481151715610c805761271002938792919060026109fa610a39386109e7565b634e487b7160e01b88526011600452602488fd5b634e487b7160e01b8b52601160045260248bfd5b610cca915060c03d60c011610cd0575b610cc28183611a15565b810190611a44565b3861095d565b503d610cb8565b610cf9915060203d602011610cff575b610cf18183611a15565b810190611b6c565b386108ff565b503d610ce7565b6040513d8c823e3d90fd5b90506020813d602011610d3b575b81610d2c60209383611a15565b810103126105ff5751386108cf565b3d9150610d1f565b6040513d8b823e3d90fd5b9093506020813d602011610d7a575b81610d6a60209383611a15565b810103126105ff57519238610873565b3d9150610d5d565b6040513d8a823e3d90fd5b93503861080a565b6024906040519063bf49546560e01b82526004820152fd5b60405163ab83268960e01b8152600490fd5b6040516302da170760e11b8152600490fd5b503461035057604036600319011261035057610e316020916040610df3611942565b91610dfc611958565b6001600160a01b0393841682526007865282822093166000818152938652928290205492815260038552205460801c90612122565b604051908152f35b5034610350578060031936011261035057602090604051908152f35b5034610350576040366003190112610350576040610e71611958565b9160043581526001602052209060018060a01b0316600052602052602060ff604060002054166040519015158152f35b50346103505780600319360112610350576020604051600a8152f35b50346103505780600319360112610350576040517f00000000000000000000000000000000000000000000000000000000000000006001600160a01b03168152602090f35b5034610350576020366003190112610350576020610f26610f21611942565b612a2e565b915050604051908152f35b503461035057604036600319011261035057610f4b611942565b6040610f55611958565b9260018060a01b03809316815260076020522091166000526020526020604060002054604051908152f35b50346103505780600319360112610350576002546040516001600160a01b039091168152602090f35b503461035057604036600319011261035057610fc3611942565b60243590610fcf61218d565b8115610dbf57610fde816121b0565b60ff600382015460d01c161561115a57610ff881836121f3565b60018101549060026110168254936001600160801b03851690612122565b91019061102982549360801c8094612122565b808211156111525761103a916119ab565b84116111405761106b7f312a5e5e1079f5dda4e95dbbd0b908b291fd5b992ef22073643ab691572c5b5292856124f8565b92338652602091600783526110a7604088209560018060a01b03841696876000528552604060002061109e828254611ab5565b90558254611ab5565b9055338652600b82526040862084600052825260ff60406000205416156110ee575b506110d3336128ca565b6110de843385612900565b6040519384523393a36001815580f35b61111990338752600a8352611109600a604089205410611ac2565b338752600a835260408720611b29565b338552600b8152604085208360005281526040600020600160ff19825416179055386110c9565b6040516348cfc9a760e11b8152600490fd5b50508461103a565b6040516386edac5560e01b81526001600160a01b0383166004820152602490fd5b503461035057806003193601126103505760206040516113888152f35b5034610350576040366003190112610350576111b2611942565b602435906111be61218d565b8115610dbf576111cd816121b0565b6111d781836121f3565b836001600160801b038254166111ed81866124f8565b92600360018060a01b0391828716966112088930338b6126da565b338652602096600688526040872089885288526040872061122a828254611ab5565b905561123b60018401918254611ab5565b90553386526009875260408620888752875260ff60408720541615611315575b50015460281c1690813b15610c0157604051630ab714fb60e11b815233600482015260248101879052604481019190915291908290606490829084905af1801561130a576112d7575b507f5548c837ab068cf56a2c2479df0882a4922fd203edb7517321831d95078c5f62906040519384523393a36001815580f35b936113037f5548c837ab068cf56a2c2479df0882a4922fd203edb7517321831d95078c5f629295611a01565b93906112a4565b6040513d87823e3d90fd5b6113409033875260088852611330600a604089205410611ac2565b3387526008885260408720611b29565b33855260098652604080862088875287528520805460ff191660011790553861125b565b5034610350578060031936011261035057604051600480548083529083526020808301937f8a35acfbc15ff81a39ae7d344fd709f28e8600b4aa8c65c6b64bfe7fe36bd19b92915b8282106113db576113d7856113c381890382611a15565b60405191829160208352602083019061196e565b0390f35b83546001600160a01b0316865294850194600193840193909101906113ac565b503461035057604036600319011261035057611415611958565b336001600160a01b038216036114315761043490600435612853565b60405163334bd91960e11b8152600490fd5b503461035057602036600319011261035057610100906040611463611942565b918060e08351611472816119ce565b82815282602082015282858201528260608201528260808201528260a08201528260c0820152015260018060a01b0380931681526003602052206040516114b8816119ce565b8154926001600160801b039384811694858452602084019160801c82526001850154906040850191825260036002870154966060870197885201549564ffffffffff926080870192848916845260a0880195878a60281c16875260ff60e060c08b019a828d60c81c1615158c52019a60d01c1615158a526040519a8b52511660208a015251604089015251606088015251166080860152511660a084015251151560c083015251151560e0820152f35b503461035057604036600319011261035057610434600435611588611958565b9080845260016020526115a160016040862001546127ad565b6127d3565b503461035057602036600319011261035057600160406020926004358152828452200154604051908152f35b50346103505780600319360112610350576040517f00000000000000000000000000000000000000000000000000000000000000006001600160a01b03168152602090f35b503461035057604036600319011261035057611631611942565b60243561163c61218d565b8015610dbf5761164b826121b0565b9261165684846121f3565b835460801c9133825260209360078552604083209160018060a01b039687831693848652875260408520549161168c8784612122565b90811561033e578181111561183857506116a881975b886124f8565b9260016116b585836119ab565b10611829575b505060026116e2913387526007895260408720868852895260408720610a2e8582546119ab565b905533835260078552604083208284528552604083205415611819575b50604051636ec3ab6760e01b81526004810182905260c0816024817f00000000000000000000000000000000000000000000000000000000000000008a165afa90811561030c57958561176460608594600198999a88916117fa575b500151886126a6565b611779611771828a6119ab565b3033876126da565b806117b9575b5050505060405184815233917fce19c3e21a8e06ec6b2c542fd707ed6c742d5dd9b947310759a8e369b36f614c873393a455604051908152f35b6117ea817fe269fe541cc43af0b2d8b036abe41d0519c9fee4be37d0611c57ed39806f5bb4946002541633876126da565b604051908152a28038868161177f565b611813915060c03d60c011610cd057610cc28183611a15565b3861175b565b611823903361257d565b386116ff565b909650915060026116e26116bb565b6116a890976116a2565b503461035057604036600319011261035057610e31602091611862611942565b61186a611958565b6001600160a01b039182168352600685526040808420919092168352845280822054600385529120546001600160801b031690612122565b50346103505760403660031901126103505760406020916118c1611942565b6118c9611958565b6001600160a01b039182168352600685528383209116825283522054604051908152f35b9050346103085760203660031901126103085760043563ffffffff60e01b8116809103610c015760209250637965db0b60e01b8114908115611931575b5015158152f35b6301ffc9a760e01b1490503861192a565b600435906001600160a01b03821682036105ff57565b602435906001600160a01b03821682036105ff57565b90815180825260208080930193019160005b82811061198e575050505090565b83516001600160a01b031685529381019392810192600101611980565b919082039182116119b857565b634e487b7160e01b600052601160045260246000fd5b610100810190811067ffffffffffffffff8211176119eb57604052565b634e487b7160e01b600052604160045260246000fd5b67ffffffffffffffff81116119eb57604052565b90601f8019910116810190811067ffffffffffffffff8211176119eb57604052565b519081151582036105ff57565b908160c09103126105ff576040519060c0820182811067ffffffffffffffff8211176119eb57611aad9160a09160405280518452602081015160208501526040810151604085015260608101516060850152611aa260808201611a37565b608085015201611a37565b60a082015290565b919082018092116119b857565b15611ac957565b60405162461bcd60e51b815260206004820152600a6024820152696d61782061737365747360b01b6044820152606490fd5b8054821015611b135760005260206000200190600090565b634e487b7160e01b600052603260045260246000fd5b90815491600160401b8310156119eb5782611b4c916001611b6a95018155611afb565b90919060018060a01b038084549260031b9316831b921b1916179055565b565b908160209103126105ff575160ff811681036105ff5790565b60ff16604d81116119b857600a0a90565b818102929181159184041417156119b857565b8115611bb3570490565b634e487b7160e01b600052601260045260246000fd5b67ffffffffffffffff81116119eb57601f01601f191660200190565b60005b838110611bf85750506000910152565b8181015183820152602001611be8565b90602091611c2181518092818552858086019101611be5565b601f01601f1916010190565b6001600160a01b0390811680156103e457600081815260206005815260409060ff828420541661210757847f00000000000000000000000000000000000000000000000000000000000000001694825163a2fa015760e01b81526004918683830152602491848184818c5afa908115611fec5787916120d2575b50156120bc57845163313ce56760e01b8152848185818b5afa908115611fec57879161209f575b5085516395d89b4160e01b815290878286818c5afa8015612095578890612012575b611d509250611d6060218951926702632b73234b733960c51b8a8501528051611d366028868d850193611d268184840187611be5565b8101036008810188520186611a15565b8b51968792601b60fa1b8d85015251809285850190611be5565b8101036001810186520184611a15565b87519261217b918285019285841067ffffffffffffffff8511176120005785949392611d9f60ff93611dac93612eb7893960c0865260c0860190611c08565b908482038c860152611c08565b9216898201528a606082015230608082015260a030910152039087f0908115611ff6579084839264ffffffffff92169987519384809263306cead160e01b82528c898301525afa918215611fec5791888a9287948a93611faa575b5060038951611e15816119ce565b8b8b611ea36b033b2e3c9fd0803ce8000000938481528a810194855282810192848452606082019480865287608084019d8e8b4216905260a085019d8e5260c085019b60018d5260e08601809e1515905283525220946001600160801b03809251166001600160801b0319875416178655511684906001600160801b0382549181199060801b169116179055565b5160018301555160028201559551950180549451925193516001600160d81b0319909516919095161760289190911b65010000000000600160c81b03161790151560c81b60ff60c81b161790151560d01b60ff60d01b16179055815491600160401b831015611f995760018301808255831015611f885750507f8a35acfbc15ff81a39ae7d344fd709f28e8600b4aa8c65c6b64bfe7fe36bd19b0180546001600160a01b03191685179055838352600590528120805460ff191660011790557f14144c58017b82fe8817b9103fbdb840246cc5cc704848c4f210206ed23d199a9080a3565b634e487b7160e01b86526032905284fd5b634e487b7160e01b86526041905284fd5b9350938092508391503d8311611fe5575b611fc58183611a15565b81010312611fe157849188611fda8b93611a37565b9138611e07565b8680fd5b503d611fbb565b86513d89823e3d90fd5b85513d88823e3d90fd5b634e487b7160e01b8c5260418952878cfd5b50903d8089833e6120238183611a15565b81019086818303126120915780519067ffffffffffffffff821161208d570181601f820112156120915780519061205982611bc9565b926120668a519485611a15565b82845288838301011161208d578291612088918980611d509796019101611be5565b611cf0565b8980fd5b8880fd5b87513d8a823e3d90fd5b6120b69150853d8711610cff57610cf18183611a15565b38611cce565b5083516379171d7160e11b815291820186905290fd5b90508481813d8311612100575b6120e98183611a15565b81010312611fe1576120fa90611a37565b38611ca7565b503d6120df565b5050505050565b8051821015611b135760209160051b010190565b80158015612185575b61217e578115611bb357816b019d971e4fe8401e740000001904811161216c576b033b2e3c9fd0803ce800000091026b019d971e4fe8401e74000000010490565b604051636f7b4e9760e01b8152600490fd5b5050600090565b50811561212b565b60026000541461219e576002600055565b604051633ee5aeb560e01b8152600490fd5b60018060a01b031680600052600360205260406000209060ff600383015460c81c16156121db575090565b602490604051906379171d7160e11b82526004820152fd5b61220864ffffffffff600384015416426119ab565b9081156124f35760018301549061222b8454926001600160801b03841690612122565b9361223f60028201549360801c8094612122565b60408051633362bee560e11b815260048101889052602481018390529094916020826044817f00000000000000000000000000000000000000000000000000000000000000006001600160a01b03165afa9182156124e8576000926124b4575b508551636ec3ab6760e01b81526001600160a01b03868116600483015260c090829060249082907f0000000000000000000000000000000000000000000000000000000000000000165afa9081156124a9579060609160009161248a575b5001518651639578f37560e01b81526004810199909952602489019190915260448801526020876064817f00000000000000000000000000000000000000000000000000000000000000006001600160a01b03165afa96871561247f5760009761244b575b508561236d91611b96565b956b033b2e3c9fd0803ce8000000968701958688116119b85761238f91611b96565b86018096116119b8576001600160801b036123ce7f4557e05caeefc19fe1b4badbbd2996f86791aa6e830e224dc79c20725c38b9c1966123ed93612122565b83546001600160801b0316911660801b6001600160801b031916178255565b6001600160801b03612403825496828816612122565b6001600160801b031990961695169485178082556003909101805464ffffffffff19164264ffffffffff16179055825194855260801c60208501526001600160a01b031692a2565b9096506020813d602011612477575b8161246760209383611a15565b810103126105ff57519585612362565b3d915061245a565b85513d6000823e3d90fd5b6124a3915060c03d60c011610cd057610cc28183611a15565b386122fd565b87513d6000823e3d90fd5b9091506020813d6020116124e0575b816124d060209383611a15565b810103126105ff5751903861229f565b3d91506124c3565b86513d6000823e3d90fd5b505050565b908015612528578060011c6b033b2e3c9fd0803ce800000080821904841161216c57612525930201611ba9565b90565b60405163382d786d60e21b8152600490fd5b805480156125675760001901906125518282611afb565b81549060018060a01b039060031b1b1916905555565b634e487b7160e01b600052603160045260246000fd5b9060018060a01b0380921691600092808452600b60205281604085209316928385526020526040842060ff1981541690558352600a6020526040832091835b83548082101561263c578390836125d38488611afb565b939054600394851b1c16146125ec5750506001016125bc565b9194959092506000198201918211612628575061262392859492612616611b4c93611b6a98611afb565b9054911b1c169184611afb565b61253a565b634e487b7160e01b81526011600452602490fd5b505050505050565b8015801561269e575b612698577e0d1b71758e219652bd3c36113404ea4a8c154c985f06f694467381d7dbf48681116126865761271090611388809102010490565b604051630135a82960e21b8152600490fd5b50600090565b50600061264d565b801580156126d2575b61217e578115611bb3578161138819048111612686576127109102611388010490565b5081156126af565b6040516323b872dd60e01b60208201526001600160a01b03928316602482015292909116604483015260648083019390935291815260a081019181831067ffffffffffffffff8411176119eb57611b6a92604052612dac565b3360009081527faf5d0f47555657a6a3533658982fc6f84ddb9fd4ccfa01dfe1dfe7ccfeece74a60205260409020547f24e583e35a20f9ecfc1572e7cb66bcc18ad3cd1650ec40dbf6ad2290e553a9fa9060ff161561278f5750565b6044906040519063e2517d3f60e01b82523360048301526024820152fd5b80600052600160205260406000203360005260205260ff604060002054161561278f5750565b906000918083526001602052604083209160018060a01b03169182845260205260ff6040842054161560001461284e5780835260016020526040832082845260205260408320600160ff198254161790557f2f8788117e7eff1d82e926ec794901d17c78024a50270940304540a733656f0d339380a4600190565b505090565b906000918083526001602052604083209160018060a01b03169182845260205260ff60408420541660001461284e578083526001602052604083208284526020526040832060ff1981541690557ff6391f5c32d9c69d2a47ea670b442974b53935d1edc7fd64eb21e047a839171b339380a4600190565b6128d390612a2e565b915050670de0b6b3a764000081106128e85750565b6024906040519063061f04bf60e31b82526004820152fd5b60405163a9059cbb60e01b60208201526001600160a01b03929092166024830152604480830193909352918152611b6a9161293c606483611a15565b612dac565b9060018060a01b0380921691600092808452600960205281604085209316928385526020526040842060ff198154169055835260086020526040832091835b83548082101561263c578390836129978488611afb565b939054600394851b1c16146125ec575050600101612980565b67ffffffffffffffff81116119eb5760051b60200190565b906129d2826129b0565b6129df6040519182611a15565b82815280926129f0601f19916129b0565b0190602036910137565b90815180825260208080930193019160005b828110612a1a575050505090565b835185529381019392810192600101612a0c565b906000808160018060a01b03809516808252602090600882526040938484209785519889858254918281520191875285872090875b818110612d965750505089612a7991038a611a15565b828552600a8452858520988651998a868254918281520191885286882090885b818110612d80575050508a612aaf91038b611a15565b612ab981516129c8565b97612ac48b516129c8565b879b847f000000000000000000000000000000000000000000000000000000000000000016955b8d85511115612bed57612b67898f8c612b378f92612b0a8c918c61210e565b5116918d81526006855283812083825285526001600160801b038480832054926003885220541690612122565b9151637f18c97b60e11b81526001600160a01b039091166004820152602481019190915291829081906044820190565b03818b5afa908115612be3578f918e918d91612baa575b508282612b9b92612b95612ba2966001989661210e565b5261210e565b5190611ab5565b9d019c612aeb565b925050508981813d8311612bdc575b612bc38183611a15565b81010312612bd857518e908d90612ba2612b7e565b8a80fd5b503d612bb9565b8c513d8d823e3d90fd5b929c50929a90999a889c5b8d85511115612ca957612c3e898f8c612b378f92612c178c918c61210e565b5116918d815260078552838120838252855283808220549160038752205460801c90612122565b03818b5afa908115612be3578f918e918d91612c74575b508282612b9b92612b95612c6c966001989661210e565b9d019c612bf8565b925050508981813d8311612ca2575b612c8d8183611a15565b81010312612bd857518e908d90612c6c612c55565b503d612c83565b9b612ce7939d50889750612d0991929b99989650612cfa9594508a51998a968795869563864a61b360e01b875260606004880152606487019061196e565b60031993848783030160248801526129fa565b918483030160448501526129fa565b03917f0000000000000000000000000000000000000000000000000000000000000000165afa938415612d7557508193612d44575b50505090565b9091809350813d8311612d6e575b612d5c8183611a15565b81010312610350575051388080612d3e565b503d612d52565b51913d9150823e3d90fd5b8254861684529288019260019283019201612a99565b8254851684529287019260019283019201612a63565b60018060a01b031690612df6600080836020829551910182875af13d15612e4b573d90612dd882611bc9565b91612de66040519384611a15565b82523d84602084013e5b84612e53565b8051918215159283612e25575b505050612e0d5750565b60249060405190635274afe760e01b82526004820152fd5b82935091602091928101031261035057506020612e429101611a37565b15388080612e03565b606090612df0565b90612e7a5750805115612e6857805190602001fd5b604051630a12f52160e11b8152600490fd5b81511580612ead575b612e8b575090565b604051639996b31560e01b81526001600160a01b039091166004820152602490fd5b50803b15612e8356fe6101a0806040523461051e5761217b803803809161001d8285610523565b833981019060c08183031261051e5780516001600160401b03811161051e5782610048918301610569565b602082015190926001600160401b03821161051e57610068918301610569565b9160408201519060ff8216820361051e57610085606084016105bd565b9061009e60a0610097608087016105bd565b95016105bd565b60408051969195919087016001600160401b038111888210176102f05760405260018752603160f81b602088015282516001600160401b0381116102f057600354600181811c91168015610514575b602082101461040457601f81116104b3575b50806020601f821160011461042f57600091610424575b508160011b916000199060031b1c1916176003555b8051906001600160401b0382116102f05760045490600182811c9216801561041a575b60208310146104045781601f849311610397575b50602090601f831160011461031157600092610306575b50508160011b916000199060031b1c1916176004555b610198826106f1565b946101209586526101a887610882565b9261014093845260208151910120968760e05260208151910120610100978189524660a0526040519160208301917f8b73c3c69bb8fe3d512ecc4cf759cc79239f7b179b0ffacaa9a75d522b39400f8352604084015260608301524660808301523060a083015260a0825260c082019180831060018060401b038411176102f05760408390525190206080523060c0526001600160a01b0390858216156102e15750808316156102cf578116156102cf57610271610277926101609586526101809687526105d1565b50610650565b506040519361179395866109c887396080518661128b015260a05186611357015260c05186611255015260e051866112da015251856113000152518461061f01525183610649015251826107ca015251816108760152f35b60405163634f094360e11b8152600490fd5b63634f094360e11b8152600490fd5b634e487b7160e01b600052604160045260246000fd5b015190503880610179565b600460009081527f8a35acfbc15ff81a39ae7d344fd709f28e8600b4aa8c65c6b64bfe7fe36bd19b9350601f198516905b81811061037f5750908460019594939210610366575b505050811b0160045561018f565b015160001960f88460031b161c19169055388080610358565b92936020600181928786015181550195019301610342565b60046000529091507f8a35acfbc15ff81a39ae7d344fd709f28e8600b4aa8c65c6b64bfe7fe36bd19b601f840160051c8101602085106103fd575b90849392915b601f830160051c820181106103ee575050610162565b600081558594506001016103d8565b50806103d2565b634e487b7160e01b600052602260045260246000fd5b91607f169161014e565b905084015138610116565b600360009081527fc2575a0e9e593c00f959f8c92f12db2869c3395a3b0502d05e2516446f71f85b9250601f198416905b81811061049b57509083600194939210610482575b5050811b0160035561012b565b86015160001960f88460031b161c191690553880610475565b9192602060018192868b015181550194019201610460565b60036000527fc2575a0e9e593c00f959f8c92f12db2869c3395a3b0502d05e2516446f71f85b601f830160051c81016020841061050d575b601f830160051c820181106105015750506100ff565b600081556001016104eb565b50806104eb565b90607f16906100ed565b600080fd5b601f909101601f19168101906001600160401b038211908210176102f057604052565b60005b8381106105595750506000910152565b8181015183820152602001610549565b81601f8201121561051e5780516001600160401b0381116102f0576040519261059c601f8301601f191660200185610523565b8184526020828401011161051e576105ba9160208085019101610546565b90565b51906001600160a01b038216820361051e57565b6001600160a01b031660008181527f5eff886ea0ce6ca488a3d6e336d6c0f75f46d19b42c06ce5ee98e42c96d256c7602052604081205490919060ff1661064c5781805260086020526040822081835260205260408220600160ff19825416179055339160008051602061215b8339815191528180a4600190565b5090565b6001600160a01b031660008181527f51a495916474fe1a0c0fcfb65a8a97682b84a054118858cdd1f5dfd7fc0919eb60205260408120549091907f9f2df0fed2c77648de5860a4cc508cd0818c85b8b8a1ab4ceeef8d981c8956a69060ff166106ec5780835260086020526040832082845260205260408320600160ff1982541617905560008051602061215b833981519152339380a4600190565b505090565b8051602091908281101561076c575090601f82511161072c578082519201519080831061071d57501790565b82600019910360031b1b161790565b60449061075e9260405193849263305a27a960e01b845280600485015282519283918260248701528686019101610546565b601f01601f19168101030190fd5b6001600160401b0381116102f0576005928354926001938481811c91168015610878575b8382101461040457601f8111610844575b5081601f84116001146107de57509282939183926000946107d3575b50501b916000199060031b1c191617905560ff90565b0151925038806107bd565b919083601f1981168760005284600020946000905b8883831061082a5750505010610811575b505050811b01905560ff90565b015160001960f88460031b161c19169055388080610804565b8587015188559096019594850194879350908101906107f3565b8560005284601f846000209201871c820191601f8601881c015b82811061086c5750506107a1565b6000815501859061085e565b90607f1690610790565b8051602090818110156108ac5750601f82511161072c578082519201519080831061071d57501790565b906001600160401b0382116102f057600654926001938481811c911680156109bd575b8382101461040457601f8111610986575b5081601f841160011461091e5750928293918392600094610913575b50501b916000199060031b1c19161760065560ff90565b0151925038806108fc565b919083601f198116600660005284600020946000905b8883831061096c5750505010610953575b505050811b0160065560ff90565b015160001960f88460031b161c19169055388080610945565b858701518855909601959485019487935090810190610934565b600660005284601f84600020920160051c820191601f860160051c015b8281106109b15750506108e0565b600081550185906109a3565b90607f16906108cf56fe608060409080825260048036101561001657600080fd5b600091823560e01c90816301ffc9a714610c845750806306fdde0314610ba9578063095ea7b314610b7f57806314668bee14610b4e578063156e29f614610a3c57806318160ddd14610a1d5780631da24f3e146109e557806323b872dd146108ef578063248a9ca3146108c35780632f2ff15d1461089a578063313ce5671461085c5780633644e5151461083f57806336568abe146107f95780636f307dc3146107b55780636f8b45301461079657806370a082311461075f5780637ecebe001461072757806384b0196e1461060857806391d14854146105c057806395d89b41146104d1578063a217fddf146104b6578063a9059cbb14610485578063bee5b6ce14610455578063d505accf146102ef578063d5391393146102b4578063d547741f14610271578063dd62ed3e146102285763f5298aca1461015857600080fd5b346102245761016636610d49565b610171959295610f00565b6001600160a01b0386169384156102165782156102085781156101fa57506101ec827f49995e5dd6158cf69ad3e9777c46755a1a826a446c6416992167462dad033b2a9596976101e46101c485846110d2565b898b526009602052878b206101da828254610e01565b9055600a54610e01565b600a5561101a565b82519182526020820152a280f35b8351633211824f60e21b8152fd5b83516302d5187360e21b8152fd5b835163634f094360e11b8152fd5b5080fd5b82843461022457806003193601126102245780602092610246610d18565b61024e610d33565b6001600160a01b0391821683526001865283832091168252845220549051908152f35b5082346102b057806003193601126102b0576102ac91356102a76001610295610d33565b93838752600860205286200154610f7a565b61137d565b5080f35b8280fd5b828434610224578160031936011261022457602090517f9f2df0fed2c77648de5860a4cc508cd0818c85b8b8a1ab4ceeef8d981c8956a68152f35b50346102245760e036600319011261022457610309610d18565b610311610d33565b906044359260643560843560ff811681036104515781421161043a5760018060a01b0390818516928389526007602052898920908154916001830190558a519060208201927f6e71edae12b1b97f4d1f60370fef10105fa2faae0126114a169c64845d6126c98452868d840152858a1660608401528a608084015260a083015260c082015260c0815260e0810181811067ffffffffffffffff821117610427578b525190206103f5916103ec916103c6611252565b908c519161190160f01b83526002830152602282015260c43591604260a4359220611648565b909291926116d8565b1681810361040c57866104098787876113f4565b80f35b87516325c0072360e11b815292830152602482015260449150fd5b634e487b7160e01b8b526041875260248bfd5b875163313c898160e11b8152808401839052602490fd5b8680fd5b82843461022457806003193601126102245760209061047e610475610d18565b60243590610ed0565b9051908152f35b8284346102245780600319360112610224576020906104af6104a5610d18565b602435903361110d565b5160018152f35b82843461022457816003193601126102245751908152602090f35b5082346102b057826003193601126102b05780518381949084546104f481610d73565b918285526020966001928860018216918260001461059657505060011461053b575b858861053789610528848a0385610ddf565b51928284938452830190610cd8565b0390f35b815286935091907f8a35acfbc15ff81a39ae7d344fd709f28e8600b4aa8c65c6b64bfe7fe36bd19b5b82841061057e575050508201018161052861053788610516565b8054848a018601528895508794909301928101610564565b60ff19168882015294151560051b8701909401945085935061052892506105379150899050610516565b508290346102b057816003193601126102b0578160209360ff926105e2610d33565b90358252600886528282206001600160a01b039091168252855220549151911615158152f35b5082346102b057826003193601126102b0576106437f0000000000000000000000000000000000000000000000000000000000000000611487565b9261066d7f0000000000000000000000000000000000000000000000000000000000000000611588565b90825192602092602085019585871067ffffffffffffffff88111761071457509260206106ca8388966106bd998b9996528686528151998a99600f60f81b8b5260e0868c015260e08b0190610cd8565b91898303908a0152610cd8565b924660608801523060808801528460a088015286840360c088015251928381520193925b8281106106fd57505050500390f35b8351855286955093810193928101926001016106ee565b634e487b7160e01b845260419052602483fd5b8284346102245760203660031901126102245760209181906001600160a01b0361074f610d18565b1681526007845220549051908152f35b8284346102245760203660031901126102245760209181906001600160a01b03610787610d18565b16815280845220549051908152f35b828434610224578160031936011261022457602090600a549051908152f35b828434610224578160031936011261022457517f00000000000000000000000000000000000000000000000000000000000000006001600160a01b03168152602090f35b509134610224578060031936011261022457610813610d33565b90336001600160a01b0383160361083057506102ac91923561137d565b5163334bd91960e11b81528390fd5b82843461022457816003193601126102245760209061047e611252565b8284346102245781600319360112610224576020905160ff7f0000000000000000000000000000000000000000000000000000000000000000168152f35b5082346102b057806003193601126102b0576102ac91356108be6001610295610d33565b6111d2565b508290346102b05760203660031901126102b05781602093600192358152600885522001549051908152f35b5090346109e25760603660031901126109e25761090a610d18565b610912610d33565b916044359360018060a01b03831680835260016020528683203384526020528683205491600019830361094e575b6020886104af89898961110d565b8683106109b657811561099f573315610988575082526001602090815286832033845281529186902090859003905582906104af38610940565b8751634a1406b160e11b8152908101849052602490fd5b875163e602df0560e01b8152908101849052602490fd5b8751637dc7a0d960e11b8152339181019182526020820193909352604081018790528291506060010390fd5b80fd5b8284346102245760203660031901126102245760209181906001600160a01b03610a0d610d18565b1681526009845220549051908152f35b8284346102245781600319360112610224576020906002549051908152f35b50913461022457610a4c36610d49565b9291610a56610f00565b6001600160a01b0316928315610b3e578115610b2e578015610b1e579081610ac3610aa37f4c209b5fc8ad50758f13e2e1088ba56a560dff690a1c6fef26394f4c03821c4f9594846110d2565b8688526009602052848820610ab9828254610ec3565b9055600a54610ec3565b600a55610ad282600254610ec3565b6002558486528560205282862082815401905584867fddf252ad1be2c89b69c2b068fc378daa952ba7f163c4a11628f55a4df523b3ef60208651868152a382519182526020820152a280f35b8251633211824f60e21b81528690fd5b82516302d5187360e21b81528690fd5b825163634f094360e11b81528690fd5b82843461022457806003193601126102245760209061047e610b6e610d18565b610b76610f00565b60243590610e24565b8284346102245780600319360112610224576020906104af610b9f610d18565b60243590336113f4565b5050346109e257806003193601126109e2578151918282600354610bcc81610d73565b9081845260209560019187600182169182600014610c5d575050600114610c01575b5050506105379291610528910385610ddf565b9190869350600383527fc2575a0e9e593c00f959f8c92f12db2869c3395a3b0502d05e2516446f71f85b5b828410610c455750505082010181610528610537610bee565b8054848a018601528895508794909301928101610c2c565b60ff19168782015293151560051b8601909301935084925061052891506105379050610bee565b919050346102b05760203660031901126102b0573563ffffffff60e01b81168091036102b05760209250637965db0b60e01b8114908115610cc7575b5015158152f35b6301ffc9a760e01b14905083610cc0565b919082519283825260005b848110610d04575050826000602080949584010152601f8019910116010190565b602081830181015184830182015201610ce3565b600435906001600160a01b0382168203610d2e57565b600080fd5b602435906001600160a01b0382168203610d2e57565b6060906003190112610d2e576004356001600160a01b0381168103610d2e57906024359060443590565b90600182811c92168015610da3575b6020831014610d8d57565b634e487b7160e01b600052602260045260246000fd5b91607f1691610d82565b6040810190811067ffffffffffffffff821117610dc957604052565b634e487b7160e01b600052604160045260246000fd5b90601f8019910116810190811067ffffffffffffffff821117610dc957604052565b91908203918211610e0e57565b634e487b7160e01b600052601160045260246000fd5b91908015610eb1576001600160a01b038316600081815260096020526040812054949192918515610eaa5791610e9c6040927f49995e5dd6158cf69ad3e9777c46755a1a826a446c6416992167462dad033b2a946101e4610e85858b610fa0565b9983898c9552600960205287812055600a54610e01565b8151908682526020820152a2565b5093505050565b604051633211824f60e21b8152600490fd5b91908201809211610e0e57565b908015610ef957610ef69160018060a01b03166000526009602052604060002054610fa0565b90565b5050600090565b3360009081527f51a495916474fe1a0c0fcfb65a8a97682b84a054118858cdd1f5dfd7fc0919eb60205260409020547f9f2df0fed2c77648de5860a4cc508cd0818c85b8b8a1ab4ceeef8d981c8956a69060ff1615610f5c5750565b6044906040519063e2517d3f60e01b82523360048301526024820152fd5b80600052600860205260406000203360005260205260ff6040600020541615610f5c5750565b80158015611012575b610ef9578115610ffc57816b019d971e4fe8401e7400000019048111610fea576b033b2e3c9fd0803ce800000091026b019d971e4fe8401e74000000010490565b604051636f7b4e9760e01b8152600490fd5b634e487b7160e01b600052601260045260246000fd5b508115610fa9565b906001600160a01b0382169081156110b957600092828452836020526040842054908282106110875750817fddf252ad1be2c89b69c2b068fc378daa952ba7f163c4a11628f55a4df523b3ef926020928587528684520360408620558060025403600255604051908152a3565b60405163391434e360e21b81526001600160a01b03919091166004820152602481019190915260448101829052606490fd5b604051634b637e8f60e11b815260006004820152602490fd5b81156110fb578160011c906b033b2e3c9fd0803ce800000090818319048111610fea5702010490565b60405163382d786d60e21b8152600490fd5b916001600160a01b038084169283156110b957169283156111b95760009083825281602052604082205490838210611187575091604082827fddf252ad1be2c89b69c2b068fc378daa952ba7f163c4a11628f55a4df523b3ef958760209652828652038282205586815220818154019055604051908152a3565b60405163391434e360e21b81526001600160a01b03919091166004820152602481019190915260448101839052606490fd5b60405163ec442f0560e01b815260006004820152602490fd5b906000918083526008602052604083209160018060a01b03169182845260205260ff6040842054161560001461124d5780835260086020526040832082845260205260408320600160ff198254161790557f2f8788117e7eff1d82e926ec794901d17c78024a50270940304540a733656f0d339380a4600190565b505090565b307f00000000000000000000000000000000000000000000000000000000000000006001600160a01b03161480611354575b156112ad577f000000000000000000000000000000000000000000000000000000000000000090565b60405160208101907f8b73c3c69bb8fe3d512ecc4cf759cc79239f7b179b0ffacaa9a75d522b39400f82527f000000000000000000000000000000000000000000000000000000000000000060408201527f000000000000000000000000000000000000000000000000000000000000000060608201524660808201523060a082015260a0815260c0810181811067ffffffffffffffff821117610dc95760405251902090565b507f00000000000000000000000000000000000000000000000000000000000000004614611284565b906000918083526008602052604083209160018060a01b03169182845260205260ff60408420541660001461124d578083526008602052604083208284526020526040832060ff1981541690557ff6391f5c32d9c69d2a47ea670b442974b53935d1edc7fd64eb21e047a839171b339380a4600190565b6001600160a01b0390811691821561146e57169182156114555760207f8c5be1e5ebec7d5bd14f71427d1e84f3dd0314c0f7b2291e5b200ac8c7c3b925918360005260018252604060002085600052825280604060002055604051908152a3565b604051634a1406b160e11b815260006004820152602490fd5b60405163e602df0560e01b815260006004820152602490fd5b60ff81146114c55760ff811690601f82116114b357604051916114a983610dad565b8252602082015290565b604051632cd44ac360e21b8152600490fd5b506040516005548160006114d883610d73565b808352926020906001908181169081156115645750600114611503575b5050610ef692500382610ddf565b91509260056000527f036b6384b5eca791c62761152d0c79bb0604c104a5fb6f4eb0703f3154bb3db0936000925b82841061154c5750610ef694505050810160200138806114f5565b85548785018301529485019486945092810192611531565b91505060209250610ef694915060ff191682840152151560051b82010138806114f5565b60ff81146115aa5760ff811690601f82116114b357604051916114a983610dad565b506040516006548160006115bd83610d73565b8083529260209060019081811690811561156457506001146115e7575050610ef692500382610ddf565b91509260066000527ff652222313e28459528d920b65115c16c04f3efc82aaedc97be59f3f377c0d3f936000925b8284106116305750610ef694505050810160200138806114f5565b85548785018301529485019486945092810192611615565b91907f7fffffffffffffffffffffffffffffff5d576e7357a4501ddfe92f46681b20a084116116cc57926020929160ff608095604051948552168484015260408301526060820152600092839182805260015afa156116c05780516001600160a01b038116156116b757918190565b50809160019190565b604051903d90823e3d90fd5b50505060009160039190565b600481101561174757806116ea575050565b600181036117045760405163f645eedf60e01b8152600490fd5b600281036117255760405163fce698f760e01b815260048101839052602490fd5b60031461172f5750565b602490604051906335e2f38360e21b82526004820152fd5b634e487b7160e01b600052602160045260246000fdfea2646970667358221220b90184cd9163d348e2d8a9110e474ff0903f1fea130bfdc08f995218499f637864736f6c634300081900332f8788117e7eff1d82e926ec794901d17c78024a50270940304540a733656f0da2646970667358221220f031f1d64625496bb1efd78dd5136a8773425729800cc64eda31ae551f1b7dae64736f6c634300081900332f8788117e7eff1d82e926ec794901d17c78024a50270940304540a733656f0d","linkReferences":{}},"methodIdentifiers":{"CLOSE_FACTOR_BPS()":"48ddab64","DEFAULT_ADMIN_ROLE()":"a217fddf","MAX_ASSETS_PER_USER()":"866b60d3","POOL_ADMIN_ROLE()":"b8f6dba7","borrow(address,uint256)":"4b8a3529","collateralManager()":"23be345c","deposit(address,uint256)":"47e7ef24","getAssetList()":"3765c0b8","getReserveData(address)":"35ea6a75","getRoleAdmin(bytes32)":"248a9ca3","getUserAccountData(address)":"bf92857c","getUserDebt(address,address)":"a2a00ed6","getUserDeposit(address,address)":"148c658c","getUserHealthFactor(address)":"71cbfc98","getUserScaledBorrow(address,address)":"6b6d2cb9","getUserScaledDeposit(address,address)":"0ea0619d","grantRole(bytes32,address)":"2f2ff15d","hasRole(bytes32,address)":"91d14854","initAsset(address)":"bf709e94","interestRateModel()":"f3fdb15a","liquidate(address,address,address,uint256)":"aab3f868","oracle()":"7dc0d1d0","renounceRole(bytes32,address)":"36568abe","repay(address,uint256)":"22867d78","revokeRole(bytes32,address)":"d547741f","setTreasury(address)":"f0f44260","supportsInterface(bytes4)":"01ffc9a7","treasury()":"61d027b3","withdraw(address,uint256)":"f3fef3a3"},"id":45}